:10000000B1C00000CFC50000F8C5000021C6000047
:100010004AC6000073C600009CC60000C5C60000AA
:10002000EEC60000C8C00000C6C000000C944F0E11
:10003000C2C0000057C50000BEC00000BCC0000028
:10004000BAC00000B8C00000B6C00000B4C00000D4
:10005000B2C00000B0C00000AEC0000007C7000082
:10006000AAC00000A7C10000DBC10000A4C00000BE
:10007000A2C00000A0C000009EC000009CC0000004
:100080009AC0000098C0000096C0000094C0000014
:1000900026C200005AC200008EC000008CC00000C2
:1000A0008AC0000088C0000086C0000084C0000034
:1000B00082C0000080C000007EC000007CC0000044
:1000C0007AC0000078C0000076C000009DC2000029
:1000D000D1C2000070C000002CC3000060C300004B
:1000E0006AC0000058085B084A084E085408920885
:1000F0005F08630869086D08710877087B087F0846
:100100009208850889088D08020000000800020195
:1001100000000304070000000000000000010204CA
:100120000810204080010204081020010204081079
:100130002004040404040404040202020202020370
:10014000030303030300000000250028002B000028
:10015000000000240027002A00004202D7026C039E
:1001600001046D0411241FBECFEFD1E2DEBFCDBF6D
:1001700012E0A0E0B2E0EEEAFDE100E00BBF02C059
:1001800007900D92A633B107D9F72BE0A6E3B2E0B2
:1001900001C01D92A635B207E1F710E0C2EBD0E036
:1001A00004C02197FE010E94CC0ECD3AD107C9F7B9
:1001B00053D60C94D50E24CFFC01918D228D892F1E
:1001C00090E0805C9F4F821B91098F73992708955F
:1001D000FC01918D828D981731F0828DE80FF11D11
:1001E000858D90E008958FEF9FEF0895FC01918D2C
:1001F000828D981761F0828DDF01A80FB11D5D9689
:100200008C91928D9F5F9F73928F90E008958FEFF6
:100210009FEF0895FC01538D448D252F30E0842FEE
:1002200090E0821B930B541710F0CF96089501971E
:10023000089589E392E0892B39F080E090E0892BE2
:1002400019F017D1811122C08EEC92E0892B39F080
:1002500080E090E0892B19F0A1D181111AC083E6CA
:1002600093E0892B39F080E090E0892B19F02BD2B4
:10027000811112C088EF93E0892B99F080E090E023
:10028000892B79F0B5D281110AC008950E9400002F
:10029000DBCF0E940000E3CF0E940000EBCF0C9464
:1002A00000000895FC01848DDF01A80FB11DA35A41
:1002B000BF4F2C91848D90E001968F739927848F86
:1002C000A689B7892C93A089B1898C9180648C937D
:1002D000938D848D981306C00288F389E02D808168
:1002E0008F7D80830895CF93DF93EC01888D8823E1
:1002F000C1F0EA89FB89808185FD05C0A889B9899B
:100300008C9186FD0EC00FB607FCF5CF808185FF6E
:10031000F2CFA889B9898C9185FFEDCFCE01C2DFDC
:10032000E8CFDF91CF910895EF92FF920F931F9343
:10033000CF93DF93EC0181E0888F9B8D8C8D981398
:1003400005C0E889F989808185FD23C0F62E0B8DD3
:1003500010E00F5F1F4F0F731127E02E8C8DE812F6
:100360000BC00FB607FCFACFE889F989808185FFB9
:10037000F5CFCE0197DFF2CF8B8DFE01E80FF11D97
:10038000E35AFF4FF0820B8FEA89FB8980818062FC
:1003900007C0EE89FF896083E889F98980818064DC
:1003A000808381E090E0DF91CF911F910F91FF90CA
:1003B000EF9008951F920F920FB60F9211240BB673
:1003C0000F922F938F939F93EF93FF93E0914602A9
:1003D000F09147028081E0914C02F0914D0282FD44
:1003E00012C0908180914F028F5F8F7320915002D5
:1003F000821751F0E0914F02F0E0EA5CFD4F958FDB
:1004000080934F0201C08081FF91EF919F918F9166
:100410002F910F900BBE0F900FBE0F901F9018954D
:100420001F920F920FB60F9211240BB60F922F93BB
:100430003F934F935F936F937F938F939F93AF936C
:10044000BF93EF93FF9386E392E02CDFFF91EF9150
:10045000BF91AF919F918F917F916F915F914F91DC
:100460003F912F910F900BBE0F900FBE0F901F90DA
:10047000189586E392E0A0DE21E0892B09F420E0C4
:10048000822F0895E6E3F2E01382128288EE93E071
:10049000A0E0B0E084839583A683B78387E192E0F0
:1004A0009183808385EC90E09587848784EC90E04D
:1004B0009787868780EC90E0918B808B81EC90E031
:1004C000938B828B82EC90E0958B848B86EC90E012
:1004D000978B868B118E128E138E148E08951F9219
:1004E0000F920FB60F9211240BB60F922F938F938A
:1004F0009F93EF93FF93E091E302F091E4028081F8
:10050000E091E902F091EA0282FD12C090818091AF
:10051000EC028F5F8F732091ED02821751F0E09112
:10052000EC02F0E0ED52FD4F958F8093EC0201C09C
:100530008081FF91EF919F918F912F910F900BBE32
:100540000F900FBE0F901F9018951F920F920FB62D
:100550000F9211240BB60F922F933F934F935F93FB
:100560006F937F938F939F93AF93BF93EF93FF937B
:1005700083ED92E097DEFF91EF91BF91AF919F9154
:100580008F917F916F915F914F913F912F910F903C
:100590000BBE0F900FBE0F901F90189583ED92E049
:1005A0000BDE21E0892B09F420E0822F0895E3ED92
:1005B000F2E01382128288EE93E0A0E0B0E0848340
:1005C0009583A683B78387E192E0918380838DEC46
:1005D00090E0958784878CEC90E09787868788ECFD
:1005E00090E0918B808B89EC90E0938B828B8AECEE
:1005F00090E0958B848B8EEC90E0978B868B118EA0
:10060000128E138E148E08951F920F920FB60F92B2
:1006100011240BB60F922F938F939F93EF93FF9319
:10062000E0918003F09181038081E0918603F09155
:10063000870382FD12C09081809189038F5F8F7341
:1006400020918A03821751F0E0918903F0E0E0598C
:10065000FC4F958F8093890301C08081FF91EF91BA
:100660009F918F912F910F900BBE0F900FBE0F9007
:100670001F9018951F920F920FB60F9211240BB670
:100680000F922F933F934F935F936F937F938F932B
:100690009F93AF93BF93EF93FF9380E793E002DEC6
:1006A000FF91EF91BF91AF919F918F917F916F914A
:1006B0005F914F913F912F910F900BBE0F900FBE06
:1006C0000F901F90189580E793E076DD21E0892B4D
:1006D00009F420E0822F0895E0E7F3E0138212820C
:1006E00088EE93E0A0E0B0E084839583A683B7838F
:1006F00087E192E09183808385ED90E09587848700
:1007000084ED90E09787868780ED90E0918B808BD9
:1007100081ED90E0938B828B82ED90E0958B848BC2
:1007200086ED90E0978B868B118E128E138E148E31
:1007300008951F920F920FB60F9211240BB60F92CD
:100740002F938F939F93EF93FF93E0911D04F0916C
:100750001E048081E0912304F091240482FD12C0E4
:100760009081809126048F5F8F73209127048217D8
:1007700051F0E0912604F0E0E35FFB4F958F80930A
:10078000260401C08081FF91EF919F918F912F915D
:100790000F900BBE0F900FBE0F901F9018951F92D9
:1007A0000F920FB60F9211240BB60F922F933F9317
:1007B0004F935F936F937F938F939F93AF93BF9369
:1007C000EF93FF938DE094E06DDDFF91EF91BF918A
:1007D000AF919F918F917F916F915F914F913F91D9
:1007E0002F910F900BBE0F900FBE0F901F9018957A
:1007F0008DE094E0E1DC21E0892B09F420E0822FF8
:100800000895EDE0F4E01382128288EE93E0A0E018
:10081000B0E084839583A683B78387E192E09183D8
:10082000808385E391E09587848784E391E09787CF
:10083000868780E391E0918B808B81E391E0938BBD
:10084000828B82E391E0958B848B86E391E0978B9A
:10085000868B118E128E138E148E08958F929F9216
:10086000AF92BF92CF92DF92EF92FF920F931F93BE
:10087000CF93DF937C018B016C0182E0C80ED11C09
:100880004701E5E08E0E911CC0E0D0E0F6016191D9
:100890006F014AE050E0C801D1D05C016EE2C801AE
:1008A00067D08A0D9B1DC80FD91FC814D90471F7D2
:1008B0004AE050E0F7016581C801C0D08C0F9D1F50
:1008C000DF91CF911F910F91FF90EF90DF90CF902C
:1008D000BF90AF909F908F900895EAEAF4E089E28C
:1008E00092E091838083128213821482158208958C
:1008F000CF92DF92EF92FF920F931F93CF93DF93EC
:100900006C017A018B01C0E0D0E0CE15DF0589F0E3
:10091000D8016D918D01D601ED91FC910190F0818E
:10092000E02DC6010995892B11F47E0102C02196A4
:10093000ECCFC701DF91CF911F910F91FF90EF9006
:10094000DF90CF9008956115710579F0FB0101905A
:100950000020E9F73197AF01461B570BDC01ED9101
:10096000FC910280F381E02D099480E090E00895ED
:10097000DC01ED91FC910190F081E02D09948F92C2
:100980009F92AF92BF92CF92DF92EF92FF920F931E
:100990001F93CF93DF93CDB7DEB7A1970FB6F8942F
:1009A000DEBF0FBECDBF7C01D42EC52EDB0119A248
:1009B000223008F42AE08E010F5D1F4F822E912C09
:1009C000A12CB12C6D2D7C2DCD01A50194010E948F
:1009D000AA0ED22EC32EDA01015011096A30710518
:1009E0008105910510F4605D01C0695CF8016083C8
:1009F000232B242B252B31F7B801C701A4DFA196A7
:100A00000FB6F894DEBF0FBECDBFDF91CF911F911F
:100A10000F91FF90EF90DF90CF90BF90AF909F909D
:100A20008F9008952115310541F4DC01ED91FC9181
:100A30000190F081E02D642F0994A1CF9A01462FF7
:100A400050E060E070E0EECF8230A9F028F4882317
:100A500049F0813051F00895843021F1E8F085307B
:100A600039F1089510926E00089580916F008D7F86
:100A700080936F000895809170008D7F8093700047
:100A800081E08093B0008091B100887F8460809382
:100A9000B1001092B3000895809171008D7F809312
:100AA00071000895809172008D7F80937200089587
:100AB000809173008D7F809373000895CF93C82F2A
:100AC000809100028C1307C0E8E0F1E0E4918FEF21
:100AD0008093000201C0EFEF8E2FB6DF60E08C2F15
:100AE000CF915DC31F920F920FB60F9211240BB6D8
:100AF0000F922F933F934F935F936F937F938F93B7
:100B00009F93AF93BF93EF93FF938091B304909122
:100B1000B404A091B504B091B604892B8A2B8B2B19
:100B200051F18091B004E091B104F091B204908150
:100B3000892780838091B3049091B404A091B50477
:100B4000B091B604181619061A061B06BCF480915B
:100B5000B3049091B404A091B504B091B604019788
:100B6000A109B1098093B3049093B404A093B50490
:100B7000B093B60403C080910002A0DFFF91EF9113
:100B8000BF91AF919F918F917F916F915F914F91A5
:100B90003F912F910F900BBE0F900FBE0F901F90A3
:100BA000189508951F920F920FB60F9211240BB64D
:100BB0000F922F933F934F935F936F937F938F93F6
:100BC0009F93AF93BF93EF93FF93E0910502F09152
:100BD00006020995FF91EF91BF91AF919F918F917F
:100BE0007F916F915F914F913F912F910F900BBE2D
:100BF0000F900FBE0F901F9018951F920F920FB677
:100C00000F9211240BB60F922F933F934F935F9344
:100C10006F937F938F939F93AF93BF93EF93FF93C4
:100C2000E0910702F09108020995FF91EF91BF91C1
:100C3000AF919F918F917F916F915F914F913F9174
:100C40002F910F900BBE0F900FBE0F901F90189515
:100C50001F920F920FB60F9211240BB60F922F9383
:100C60003F934F935F936F937F938F939F93AF9334
:100C7000BF93EF93FF93E0910902F0910A02099567
:100C8000FF91EF91BF91AF919F918F917F916F9164
:100C90005F914F913F912F910F900BBE0F900FBE20
:100CA0000F901F9018951F920F920FB60F9211245C
:100CB0000BB60F922F933F934F935F936F937F9356
:100CC0008F939F93AF93BF93EF93FF93E0910B02AA
:100CD000F0910C020995FF91EF91BF91AF919F9117
:100CE0008F917F916F915F914F913F912F910F90D5
:100CF0000BBE0F900FBE0F901F9018951F920F9272
:100D00000FB60F9211240BB60F922F933F934F9370
:100D10005F936F937F938F939F93AF93BF93EF9363
:100D2000FF93E0910102F09102020995FF91EF918A
:100D3000BF91AF919F918F917F916F915F914F91F3
:100D40003F912F910F900BBE0F900FBE0F901F90F1
:100D500018951F920F920FB60F9211240BB60F9297
:100D60002F933F934F935F936F937F938F939F93B3
:100D7000AF93BF93EF93FF93E0910302F0910402CE
:100D80000995FF91EF91BF91AF919F918F917F91C5
:100D90006F915F914F913F912F910F900BBE0F90EC
:100DA0000FBE0F901F9018951F920F920FB60F92C3
:100DB00011240BB60F922F933F934F935F936F9332
:100DC0007F938F939F93AF93BF93EF93FF93E091A4
:100DD0000D02F0910E020995FF91EF91BF91AF9135
:100DE0009F918F917F916F915F914F913F912F9143
:100DF0000F900BBE0F900FBE0F901F9018951F9273
:100E00000F920FB60F9211240BB60F922F933F93B0
:100E10004F935F936F937F938F939F93AF93BF9302
:100E2000EF93FF93E0910F02F09110020995FF916B
:100E3000EF91BF91AF919F918F917F916F915F9152
:100E40004F913F912F910F900BBE0F900FBE0F90BF
:100E50001F90189508950895B1D0FDDFE0D1C9E144
:100E6000D1E0E0D12097E9F3E4D9FBCF1F920F92B4
:100E70000FB60F9211242F933F938F939F93AF93AD
:100E8000BF938091B8049091B904A091BA04B09135
:100E9000BB043091B70423E0230F2D3720F40196D3
:100EA000A11DB11D05C026E8230F0296A11DB11D8D
:100EB0002093B7048093B8049093B904A093BA0424
:100EC000B093BB048091BC049091BD04A091BE047A
:100ED000B091BF040196A11DB11D8093BC049093F5
:100EE000BD04A093BE04B093BF04BF91AF919F9186
:100EF0008F913F912F910F900FBE0F901F901895DB
:100F00003FB7F8948091BC049091BD04A091BE04B9
:100F1000B091BF0426B5A89B05C02F3F19F00196DC
:100F2000A11DB11D3FBFBA2FA92F982F8827820F6F
:100F3000911DA11DB11DBC01CD0142E0660F771FBF
:100F4000881F991F4A95D1F708958F929F92AF926B
:100F5000BF92CF92DF92EF92FF926B017C01D0DFC4
:100F60004B015C01C114D104E104F104F1F072DF22
:100F7000C7DFDC01CB0188199909AA09BB09883EA2
:100F80009340A105B10570F321E0C21AD108E10830
:100F9000F10888EE880E83E0981EA11CB11CC114D4
:100FA000D104E104F10421F7DDCFFF90EF90DF9051
:100FB000CF90BF90AF909F908F900895789484B514
:100FC000826084BD84B5816084BD85B5826085BD45
:100FD00085B5816085BDEEE6F0E08081816080832B
:100FE000E1E8F0E01082808182608083808181600E
:100FF0008083E0E8F0E0808181608083E1EBF0E0D5
:10100000808184608083E0EBF0E080818160808378
:10101000E1E9F0E08081826080838081816080836B
:10102000E0E9F0E0808181608083E1EAF0E08081A6
:1010300082608083808181608083E0EAF0E080814B
:1010400081608083E1E2F1E0808182608083808141
:1010500081608083E0E2F1E0808181608083EAE763
:10106000F0E08081846080838081826080838081E1
:10107000816080838081806880831092C1000895A0
:1010800090E0FC013197E231F10508F04BC0EE58D9
:10109000FF4F82C6809180008F7703C080918000CF
:1010A0008F7D80938000089580918000877FF9CFA5
:1010B00084B58F7702C084B58F7D84BD08958091FB
:1010C000B0008F7703C08091B0008F7D8093B00017
:1010D0000895809190008F7707C0809190008F7D58
:1010E00003C080919000877F809390000895809145
:1010F000A0008F7707C08091A0008F7D03C08091F2
:10110000A000877F8093A0000895809120018F77B1
:1011100007C0809120018F7D03C080912001877FCF
:10112000809320010895CF93DF9390E0FC01E35E6C
:10113000FE4F2491FC01EF5CFE4F8491882361F106
:1011400090E0880F991FFC01E15BFE4FC591D4919F
:10115000FC01EB5BFE4FA591B491611109C09FB7F3
:10116000F8948881209582238883EC912E230BC0EC
:10117000623061F49FB7F8943881822F8095832381
:101180008883EC912E2B2C939FBF06C08FB7F894C9
:10119000E8812E2B28838FBFDF91CF9108951F9375
:1011A000CF93DF93282F30E0F901E75FFE4F849162
:1011B000F901E35EFE4FD491F901EF5CFE4FC4915B
:1011C000CC23C1F0162F81115BDFEC2FF0E0EE0F86
:1011D000FF1FEB5BFE4FA591B4918FB7F8941111EF
:1011E00005C09C91ED2FE095E92302C0EC91ED2B19
:1011F000EC938FBFDF91CF911F91089561E086E05E
:10120000CEDF68EE73E080E090E09FDE60E086E095
:10121000C6DF68EE73E080E090E097DEEFCF61E03C
:1012200086E081CFAF92BF92CF92DF92EF92FF9292
:101230000F93A12CB12CC12CD12CE12CF12C01E06D
:1012400020E030E048EC50E06BE272E08EEF98E096
:101250002AD00F91FF90EF90DF90CF90BF90AF908A
:1012600014C1E091E904F091EA048081811104C085
:101270008FEF9FEFDC010EC0E091E904F091EA04EA
:101280000780F085E02D0084F185E02D8281938137
:10129000A481B5818093C1049093C204A093C30438
:1012A000B093C40408955F926F927F928F929F9241
:1012B000AF92BF92CF92DF92EF92FF920F931F9364
:1012C000CF93DF934C01162F572E5A013901C114C9
:1012D000D10431F4CA01D0D26C01892B09F4C4C005
:1012E0008AE290E0C9D2EC01009779F0DC8ECB8ED7
:1012F00021E0A21AB108AC0CBD1CBC01635E7F4F9B
:10130000E12FF52DCF01089606C0C60145D3ACC02C
:10131000E817F90749F09F014191DB014D93BD01A9
:10132000D9012C912111F4CF1CA2102F0A3008F002
:1013300019E01A8F6E01B2E0CB0ED11CC601C2D4E7
:10134000CE010E96BFD4DB87CA878AE090E0A0E08A
:10135000B0E0811B9109A109B1098E879F87A88BF5
:10136000B98BDF8BCE8B1DA21EA21FA218A619A6B9
:10137000A301B401C5013AD399838883E114F10430
:1013800019F0F701D183C0830FB6F8940F928091C2
:10139000CF048F5F8093CF0480916F05909170058B
:1013A000892B79F5D0937005C0936F058091CF0498
:1013B0008130B1F581E0E82E85E0F82EC70171D4C7
:1013C000FBE0EF0EF11C2FE6E21625E0F206B1F786
:1013D00086EF94E066D48BEE94E063D48CED94E0D9
:1013E00060D481ED94E05DD486EF94E09093EA04BC
:1013F0008093E9048BEE94E09093E8048093E704F3
:101400000FC08091C90481110BC0E0916F05F0916C
:101410007005828D081720F0D0937005C0936F057A
:101420008091C5048F5F8093C5048A8D9091CA0412
:10143000981710F48093CA04ABE08A9FC00111246E
:10144000B6018F5F9A4F42D40F900FBE8091C904AE
:10145000882341F0E0916F05F0917005828D80172F
:1014600008F46BD381E001C08FEFDF91CF911F9122
:101470000F91FF90EF90DF90CF90BF90AF909F9033
:101480008F907F906F905F900895AF92BF92CF92B0
:10149000DF92EF92FF920F93A12CB12CC12CD12C93
:1014A000E12CF12C00E020E030E045E550E061E384
:1014B00072E082EC9BE0F7DE8130F1F4F8944FEFBC
:1014C0005FEFBA014093C1045093C2046093C30418
:1014D0007093C4048093C9041092CB041092CC047E
:1014E0001092CD041092CE040F91FF90EF90DF90F8
:1014F000CF90BF90AF90E6C20F91FF90EF90DF903A
:10150000CF90BF90AF9008958091C0048F5F80937B
:10151000C00408958F929F92AF92BF92EF92FF9274
:101520000F931F93CF93DF938091C0048111A9C0C3
:101530008091CB049091CC04A091CD04B091CE04C5
:101540000196A11DB11D8093CB049093CC04A09370
:10155000CD04B093CE048090CB049090CC04A090A6
:10156000CD04B090CE0481149104A104B104B1F46F
:101570008091E9049091EA042091E7043091E80415
:101580003093EA042093E9049093E8048093E704FD
:101590008091C6048F5F8093C60463DE8091C1048E
:1015A0009091C204A091C304B091C404C0E0881615
:1015B0009906AA06BB0608F454C0DBE0E091E904F2
:1015C000F091EA048081811104C08FEF9FEFDC016C
:1015D00013C0E091E904F091EA040780F085E02D62
:1015E00000851185F80182819381A481B5818816D7
:1015F0009906AA06BB0648F48093C1049093C204DE
:10160000A093C304B093C4042CC07801F2E0EF0EA1
:10161000F11CC7017CD3D80158968D919C915997A4
:10162000892B19F0C8010E9672D3F801928D809122
:10163000CA04891710F49093CA04D99FC0011124D9
:10164000B7018F5F9A4F42D3E0916F05F09170051B
:10165000D8015A969C91828D981708F4AFCFC1E0BB
:10166000ADCFE0916F05F0917005E28DBBE0EB9F8F
:10167000F0011124EF5FFA4F8081823040F0C1E029
:1016800006C08091C8048F5F8093C804C0E0809139
:10169000C7048111C1E08C2FDF91CF911F910F9171
:1016A000FF90EF90BF90AF909F908F900895EF9232
:1016B000FF920F931F93CF93DF930FB6F8940F927F
:1016C0008091C00481508093C0048091C00488231D
:1016D00011F080E04EC08091CF048823D1F38BE0DD
:1016E000F82EEE24E3948091DC04882339F1E09114
:1016F000E304F091E404C085D185CE010E9607D3B2
:101700008E010E5F1F4FC80102D39A8D8091CA04CB
:10171000891710F49093CA04F99EC0011124B801EE
:101720008F5F9A4FD3D2E0916F05F09170059A8D3B
:10173000828D9817C0F2E092C704D5CF8091C8047B
:10174000811108C08091C704813009F0C2CFF5D162
:1017500081E00FC0C1E08091C804882399F3DADEEC
:101760008111C093C7048091C80481508093C8043C
:10177000F2CF0F900FBEDF91CF911F910F91FF908D
:10178000EF9008958091D004882321F1BDDEC091AF
:10179000D1048DDFCC23B1F30FB6F8940F92E09112
:1017A000D804F091D904C085D185CE010296AFD27C
:1017B0008091CF0481508093CF048091D0048150D8
:1017C0008093D0040F900FBE8B8D9C8DE5D0CE0101
:1017D000E3D0D8CF809101058230A0F2AED1D2CF34
:1017E0008091C004882321F081E08093C70408958C
:1017F0001092C7049BE0E091CA049E9FF00111245F
:10180000EF5FFA4F8081811106C08091CA04815038
:101810008093CA04F0CF8091CA0490E04BE0489FC7
:101820009001499F300D1124F901EF5FFA4FA1811A
:10183000B28114960D90BC91A02DB283A1832C5F30
:101840003A4FA217B30731F414962D913C91159796
:10185000328321832BE0289FF001299FF00D112472
:10186000EF5FFA4F0180F281E02D808591859093A2
:10187000700580936F0508950F931F93CF93DF93A7
:10188000EC0142DE80917105811121C08BE795E06A
:1018900090937705809376051092790510927805DC
:1018A0008BED95E090937505809374051092730508
:1018B0001092720590937E0580937D0582E795E0F6
:1018C00090937C0580937B0581E080937105209740
:1018D00009F02496CE0101978A3D954008F053C047
:1018E000E0917605F0917705A6E7B5E082819381D6
:1018F0008C179D0728F025E0E237F20749F443C032
:101900002081318121153105B1F3DF01F901EECFDD
:101910000D911C9111970C5F1F4F208131812D93E8
:101920003C938C1B9D0B8930910500F1DF01AC0FBE
:10193000BD1F13969C938E931297D383C2831296E6
:101940002D913C91139766E775E0EB0188819981B1
:10195000EC014A815B814217530710F4BC01F5CFBB
:1019600011969C938E93EB01B983A8838091110209
:101970009091120222813381821B930B9093120269
:101980008093110202C000E010E091DEC801DF91F7
:10199000CF911F910F910895CF93DF93009719F185
:1019A000EC012497B1DD8A819B81E6E7F5E0A08117
:1019B000B18112962D913C9113972817390710F495
:1019C000FD01F5CFB983A883D183C0832091110293
:1019D00030911202820F931F909312028093110292
:1019E000DF91CF9164CEDF91CF91089531E1FC0179
:1019F0003083319722E220833197A3E3A08331978C
:101A000060833197708331971082319760E86083EB
:101A100031971082319762E06083319763E0608391
:101A2000319764E06083319765E06083319766E0C9
:101A30006083319767E06083319768E06083319716
:101A400069E06083319760E160833197308331973B
:101A500032E13083319733E13083319734E13083A1
:101A6000319735E13083319736E13083319737E173
:101A70003083319738E13083319739E130833197C2
:101A800030E23083319731E23083319720833197D0
:101A900023E220833197408331975083319726E2A8
:101AA0002083319727E22083319728E220833197E2
:101AB00029E22083319720E32083319721E320839B
:101AC0008697089589E08093890083EC809388004D
:101AD0008BE080938100EFE6F0E08081826080837C
:101AE000A0916F05B0917005CD91CDBFDD91DEBFA6
:101AF000FF91EF91DF91CF91BF91AF919F918F9126
:101B00007F916F915F914F913F912F911F910F9115
:101B1000FF90EF90DF90CF90BF90AF909F908F900D
:101B20007F906F905F904F903F902F901F900F90FD
:101B30000FBE0F90089581E008950F920FB6F894AC
:101B40000F921F9211242F923F924F925F926F92A9
:101B50007F928F929F92AF92BF92CF92DF92EF923D
:101B6000FF920F931F932F933F934F935F936F9326
:101B70007F938F939F93AF93BF93CF93DF93EF9315
:101B8000FF93A0916F05B09170050DB60D920EB642
:101B90000D9226DEA0916F05B0917005CD91CDBF5D
:101BA000DD91DEBFFF91EF91DF91CF91BF91AF91BA
:101BB0009F918F917F916F915F914F913F912F9165
:101BC0001F910F91FF90EF90DF90CF90BF90AF905B
:101BD0009F908F907F906F905F904F903F902F904D
:101BE0001F900F900FBE0F9008950F920FB6F894AC
:101BF0000F921F9211242F923F924F925F926F92F9
:101C00007F928F929F92AF92BF92CF92DF92EF928C
:101C1000FF920F931F932F933F934F935F936F9375
:101C20007F938F939F93AF93BF93CF93DF93EF9364
:101C3000FF93A0916F05B09170050DB60D920EB691
:101C40000D9268DC8111CCDDA0916F05B09170051B
:101C5000CD91CDBFDD91DEBFFF91EF91DF91CF91AF
:101C6000BF91AF919F918F917F916F915F914F91B4
:101C70003F912F911F910F91FF90EF90DF90CF90A8
:101C8000BF90AF909F908F907F906F905F904F909C
:101C90003F902F901F900F900FBE0F900895A5DFDB
:101CA0001895FC010396928381834FEF5FEFBA0191
:101CB0004383548365837683908787839287818764
:101CC00010820895FC01138612860895CF93DF9346
:101CD0009C01FB01DC011196CD91DC911297D5831B
:101CE000C4838E819F81978386838E819F81DC014F
:101CF00015967C936E9314977F836E833387228728
:101D0000F90180818F5F8083DF91CF910895CF9318
:101D1000DF93FC01A285B38584819581268137817B
:101D2000EC013F832E83C681D7819D838C831196DE
:101D30008D919C9112978E179F0721F41296DC9338
:101D4000CE931197138612868C9181508C93DF91DC
:101D5000CF910895A1E21A2EAA1BBB1BFD010DC055
:101D6000AA1FBB1FEE1FFF1FA217B307E407F5074B
:101D700020F0A21BB30BE40BF50B661F771F881F27
:101D8000991F1A9469F760957095809590959B01BD
:101D9000AC01BD01CF010895EE0FFF1F0024001C10
:0E1DA0000BBE0790F691E02D0994F894FFCF4A
:101DAE00FFD105D105D105D105D105D105D105D17B
:101DBE0005DB0500000000940178040A017301DCC4
:101DCE0000F600E800000000002E045461736B3131
:061DDE000049444C4500E1
:00000001FF
