:10000000A4C0000077C60000A0C60000C9C600005A
:10001000F2C600001BC7000044C700006DC7000007
:1000200096C70000BBC00000B9C000000C94D40EFD
:10003000B5C00000FFC50000B1C00000AFC00000A7
:10004000ADC00000ABC00000A9C00000A7C0000008
:10005000A5C00000A3C00000A1C00000B1C70000FF
:100060009DC00000ADC1000031C2000097C000007B
:1000700095C0000093C0000091C000008FC0000038
:100080008DC000008BC0000089C0000087C0000048
:1000900046C20000CAC2000081C000007FC000004C
:1000A0007DC000007BC0000079C0000077C0000068
:1000B00075C0000073C0000071C000006FC0000078
:1000C0006DC000006BC0000069C00000D7C2000016
:1000D0005BC3000063C0000080C3000004C40000D4
:1000E0005DC000000200000000240027002A00007C
:1000F000000000250028002B00000000002300263F
:10010000002900040404040404040402020202029C
:1001100002030303030303010204081020408001CB
:10012000020408102001020408102000000008004A
:1001300002010000030407000000000000000000AE
:100140001A02C902780327049C0411241FBECFEFB2
:10015000D1E2DEBFCDBF12E0A0E0B2E0E8E7FFE110
:1001600000E00BBF02C007900D92A633B107D9F78C
:100170002BE0A6E3B2E001C01D92A635B207E1F77D
:1001800010E0C5EAD0E004C02197FE010E94B10F43
:10019000C03AD107C9F708D70C94BA0F31CFDC01A8
:1001A0005C968C915C97FD01E80FF11DE35AFF4FBF
:1001B00020815C968C915C9790E001968F73907093
:1001C0005C968C935C975696ED91FC9157972083A3
:1001D0005096ED91FC9151978081806480835B966D
:1001E0009C915B975C968C915C97981739F452962A
:1001F000ED91FC91539780818F7D80830895FC0160
:10020000218D828D30E0205C3F4F281B31092F73F8
:100210003070C9010895FC01918D828D981719F4F1
:100220002FEF3FEF06C0828DE80FF11D858D282F3F
:1002300030E0C9010895DC0159969C9159975A966E
:100240008C915A97981719F42FEF3FEF10C05A96D8
:100250008C915A97FD01E80FF11D958D5A968C915E
:100260005A978F5F8F735A968C93292F30E0C9016C
:100270000895FC01938D848D282F30E0492F50E0A4
:10028000981718F0215C3F4F02C021503040241BCA
:10029000350BC9010895CF93DF93EC01888D882336
:1002A00059F418C08C9185FF09C0E889F9898081CB
:1002B00085FF04C0CE0173DFAA89BB898C9185FDBF
:1002C00005C0E889F989808186FD04C00FB607FE64
:1002D000E9CFF4CFDF91CF9108950F931F93CF9380
:1002E000DF93EC01062F81E0888F9B8D8C8D981712
:1002F00071F5E889F989808185FF29C0EE89FF8938
:100300006083E889F9898081806419C00FB607FC91
:1003100007C0E889F989808185FF02C0CE013FDFEF
:100320008C8D181799F38B8DFE01E80FF11DE35AA0
:10033000FF4F00831B8FEA89FB8980818062808365
:1003400081E090E0DF91CF911F910F9108951B8D77
:100350001F5F1F73E5CF8DE592E0892B49F080E0A8
:1003600090E0892B29F0A9D0882311F00E94000089
:100370008CE093E0892B49F080E090E0892B29F014
:100380004BD1882311F00E9400008BEB93E0892B66
:1003900049F080E090E0892B29F0EDD1882311F01D
:1003A0000E9400008AE694E0892B49F080E090E00A
:1003B000892B29F08FD2882311F00E940000089524
:1003C0001F920F920FB60F920BB60F9211242F931C
:1003D0008F939F93EF93FF93E0914602F091470232
:1003E000808182FD16C0E0914C02F0914D02208187
:1003F00090914F029F5F9F7380915002981771F008
:10040000E0914F02F0E0EA5CFD4F258F90934F02A0
:1004100005C0E0914C02F0914D02E081FF91EF9117
:100420009F918F912F910F900BBE0F900FBE0F9049
:100430001F901895109239021092380288EE93E0BE
:10044000A0E0B0E080933A0290933B02A0933C027C
:10045000B0933D0282E292E090933702809336029D
:1004600085EC90E0909343028093420284EC90E00C
:10047000909345028093440280EC90E09093470271
:100480008093460281EC90E0909349028093480269
:1004900082EC90E090934B0280934A0286EC90E0CD
:1004A00090934D0280934C0210924F021092500292
:1004B0001092510210925202089586E392E09FDE5C
:1004C00020E0892B09F021E0822F08951F920F92DE
:1004D0000FB60F920BB60F9211242F933F934F93A9
:1004E0005F936F937F938F939F93AF93BF93EF939C
:1004F000FF9386E392E053DEFF91EF91BF91AF91BE
:100500009F918F917F916F915F914F913F912F912B
:100510000F900BBE0F900FBE0F901F9018951F925B
:100520000F920FB60F920BB60F9211242F938F9349
:100530009F93EF93FF93E091E302F091E4028081B7
:1005400082FD16C0E091E902F091EA0220819091CB
:10055000EC029F5F9F738091ED02981771F0E0911C
:10056000EC02F0E0ED52FD4F258F9093EC0205C0B8
:10057000E091E902F091EA02E081FF91EF919F9111
:100580008F912F910F900BBE0F900FBE0F901F9069
:1005900018951092D6021092D50288EE93E0A0E052
:1005A000B0E08093D7029093D802A093D902B09381
:1005B000DA0282E292E09093D4028093D3028DEC2F
:1005C00090E09093E0028093DF028CEC90E09093B7
:1005D000E2028093E10288EC90E09093E402809341
:1005E000E30289EC90E09093E6028093E5028AECC6
:1005F00090E09093E8028093E7028EEC90E0909375
:10060000EA028093E9021092EC021092ED0210923D
:10061000EE021092EF02089583ED92E0F0DD20E00B
:10062000892B09F021E0822F08951F920F920FB6B7
:100630000F920BB60F9211242F933F934F935F931A
:100640006F937F938F939F93AF93BF93EF93FF939A
:1006500083ED92E0A4DDFF91EF91BF91AF919F9167
:100660008F917F916F915F914F913F912F910F905B
:100670000BBE0F900FBE0F901F9018951F920F92F8
:100680000FB60F920BB60F9211242F938F939F9357
:10069000EF93FF93E0918003F0918103808182FDCD
:1006A00016C0E0918603F091870320819091890321
:1006B0009F5F9F7380918A03981771F0E09189037F
:1006C000F0E0E059FC4F258F9093890305C0E0913D
:1006D0008603F0918703E081FF91EF919F918F91C5
:1006E0002F910F900BBE0F900FBE0F901F9018957B
:1006F000109273031092720388EE93E0A0E0B0E0D2
:100700008093740390937503A0937603B09377035B
:1007100082E292E0909371038093700385ED90E004
:1007200090937D0380937C0384ED90E090937F030E
:1007300080937E0380ED90E090938103809380030B
:1007400081ED90E0909383038093820382ED90E0AB
:10075000909385038093840386ED90E090938703C4
:10076000809386031092890310928A0310928B0360
:1007700010928C03089580E793E041DD20E0892BFF
:1007800009F021E0822F08951F920F920FB60F9269
:100790000BB60F9211242F933F934F935F936F9358
:1007A0007F938F939F93AF93BF93EF93FF9380E7D4
:1007B00093E0F5DCFF91EF91BF91AF919F918F9105
:1007C0007F916F915F914F913F912F910F900BBE51
:1007D0000F900FBE0F901F9018951F920F920FB69B
:1007E0000F920BB60F9211242F938F939F93EF9339
:1007F000FF93E0911D04F0911E04808182FD16C0DC
:10080000E0912304F09124042081909126049F5FBD
:100810009F7380912704981771F0E0912604F0E00F
:10082000E35FFB4F258F9093260405C0E0912304DE
:10083000F0912404E081FF91EF919F918F912F918E
:100840000F900BBE0F900FBE0F901F901895109237
:10085000100410920F0488EE93E0A0E0B0E08093C3
:10086000110490931204A0931304B093140482E231
:1008700092E090930E0480930D0485E391E09093B1
:100880001A048093190484E391E090931C048093EC
:100890001B0480E391E090931E0480931D0481E388
:1008A00091E09093200480931F0482E391E0909361
:1008B00022048093210486E391E0909324048093A2
:1008C00023041092260410922704109228041092F8
:1008D000290408958DE094E092DC20E0892B09F052
:1008E00021E0822F08951F920F920FB60F920BB640
:1008F0000F9211242F933F934F935F936F937F93A6
:100900008F939F93AF93BF93EF93FF938DE094E00A
:1009100046DCFF91EF91BF91AF919F918F917F91B5
:100920006F915F914F913F912F910F900BBE0F9060
:100930000FBE0F901F90189584E392E09093AB0444
:100940008093AA041092AC041092AD041092AE04ED
:100950001092AF0408958F929F92AF92BF92CF9260
:10096000DF92EF92FF920F931F93CF93DF934C018F
:100970006B017C01AA24BB24C0E0D0E0C601F701D2
:1009800062814AE050E0F4D08C01C6016EE24CD0A6
:10099000080F191FA00EB11E21960894E11CF11C2E
:1009A000C330D10559F7C601F40165814AE050E032
:1009B000DFD09501280F391FC901DF91CF911F9119
:1009C0000F91FF90EF90DF90CF90BF90AF909F90EE
:1009D0008F900895CF92DF92EF92FF920F931F9323
:1009E000CF93DF937C018B016A01C0E0D0E00FC0A0
:1009F000D701ED91FC910190F081E02DC701D80164
:100A00006C910995892B31F00F5F1F4F2196CC1601
:100A1000DD0671F7CE01DF91CF911F910F91FF900D
:100A2000EF90DF90CF900895DC01ED91FC91019063
:100A3000F081E02D09950895CF93DF93EC016115C6
:100A4000710519F420E030E00FC0DB010D900020AB
:100A5000E9F71197A61BB70BE881F9810280F381B2
:100A6000E02DAD0109959C01C901DF91CF91089559
:100A70003F924F925F926F927F928F929F92AF922E
:100A8000BF92CF92DF92EF92FF920F931F93DF936B
:100A9000CF93CDB7DEB7A3970FB6F894DEBF0FBEE6
:100AA000CDBF9BA38AA3342E452E562E672E22300F
:100AB00008F42AE019A281E2C82ED12CCC0EDD1E4A
:100AC000822E9924AA24BB24632D742D852D962D66
:100AD000A50194010E948F0F762E632D742D852D14
:100AE000962DA50194010E948F0F79018A01D801EA
:100AF000C701382E492E5A2E6B2E0894C108D108F2
:100B000089E0871518F0672D605D02C0672D695C6C
:100B1000F6016083E114F10401051105A9F68AA12B
:100B20009BA1B60189DFA3960FB6F894DEBF0FBE76
:100B3000CDBFCF91DF911F910F91FF90EF90DF908C
:100B4000CF90BF90AF909F908F907F906F905F906D
:100B50004F903F900895DC012115310541F4ED914E
:100B6000FC910190F081E02D642F0995089580CFCC
:100B7000EF92FF920F931F939A01E62EFF2400E05D
:100B800010E0B801A701E7DF1F910F91FF90EF90F0
:100B900008958230B9F0833028F4882351F08130F1
:100BA00099F50AC0843029F18430E8F0853061F588
:100BB00026C010926E00089580916F008D7F809303
:100BC0006F000895809170008D7F8093700081E0A8
:100BD0008093B0008091B100887F84608093B100E1
:100BE0001092B3000895809171008D7F8093710001
:100BF0000895809172008D7F809372000895809196
:100C000073008D7F8093730008951F93182F809138
:100C10000B02811711F09FEF06C0E4EEF0E0949113
:100C20008FEF80930B02892FB4DF812F60E08FD389
:100C30001F9108951F920F920FB60F920BB60F924D
:100C400011242F933F934F935F936F937F938F93D1
:100C50009F93AF93BF93EF93FF938091B0049091D4
:100C6000B104A091B204B091B3040097A105B105FD
:100C700051F1E091B404F091B50480819091B604F3
:100C8000892780838091B0049091B104A091B2042F
:100C9000B091B304181619061A061B06BCF480910D
:100CA000B0049091B104A091B204B091B304019743
:100CB000A109B1098093B0049093B104A093B20448
:100CC000B093B30403C080910B029FDFFF91EF91BB
:100CD000BF91AF919F918F917F916F915F914F9154
:100CE0003F912F910F900BBE0F900FBE0F901F9052
:100CF000189508951F920F920FB60F920BB60F9290
:100D000011242F933F934F935F936F937F938F9310
:100D10009F93AF93BF93EF93FF93E0911002F091F5
:100D200011020995FF91EF91BF91AF919F918F9122
:100D30007F916F915F914F913F912F910F900BBEDB
:100D40000F900FBE0F901F9018951F920F920FB625
:100D50000F920BB60F9211242F933F934F935F93F3
:100D60006F937F938F939F93AF93BF93EF93FF9373
:100D7000E0911202F09113020995FF91EF91BF915A
:100D8000AF919F918F917F916F915F914F913F9123
:100D90002F910F900BBE0F900FBE0F901F901895C4
:100DA0001F920F920FB60F920BB60F9211242F9332
:100DB0003F934F935F936F937F938F939F93AF93E3
:100DC000BF93EF93FF93E0911402F0911502099500
:100DD000FF91EF91BF91AF919F918F917F916F9113
:100DE0005F914F913F912F910F900BBE0F900FBECF
:100DF0000F901F9018951F920F920FB60F920BB67F
:100E00000F9211242F933F934F935F936F937F9390
:100E10008F939F93AF93BF93EF93FF93E09116024D
:100E2000F09117020995FF91EF91BF91AF919F91BA
:100E30008F917F916F915F914F913F912F910F9083
:100E40000BBE0F900FBE0F901F9018951F920F9220
:100E50000FB60F920BB60F9211242F933F934F931F
:100E60005F936F937F938F939F93AF93BF93EF9312
:100E7000FF93E0910C02F0910D020995FF91EF9123
:100E8000BF91AF919F918F917F916F915F914F91A2
:100E90003F912F910F900BBE0F900FBE0F901F90A0
:100EA00018951F920F920FB60F920BB60F92112446
:100EB0002F933F934F935F936F937F938F939F9362
:100EC000AF93BF93EF93FF93E0910E02F0910F0267
:100ED0000995FF91EF91BF91AF919F918F917F9174
:100EE0006F915F914F913F912F910F900BBE0F909B
:100EF0000FBE0F901F9018951F920F920FB60F9272
:100F00000BB60F9211242F933F934F935F936F93E0
:100F10007F938F939F93AF93BF93EF93FF93E09152
:100F20001802F09119020995FF91EF91BF91AF91CD
:100F30009F918F917F916F915F914F913F912F91F1
:100F40000F900BBE0F900FBE0F901F9018951F9221
:100F50000F920FB60F920BB60F9211242F933F935F
:100F60004F935F936F937F938F939F93AF93BF93B1
:100F7000EF93FF93E0911A02F0911B020995FF9104
:100F8000EF91BF91AF919F918F917F916F915F9101
:100F90004F913F912F910F900BBE0F900FBE0F906E
:100FA0001F90189508950895CF93DF9377D0FBDFB6
:100FB00020D2CBEAD1E0FDD12097E9F3CCD9FBCF09
:100FC0001F920F920FB60F9211242F933F938F937E
:100FD0009F93AF93BF938091BB049091BC04A09169
:100FE000BD04B091BE043091BF040196A11DB11D96
:100FF000232F2D5F2D3720F02D570196A11DB11DF8
:101000002093BF048093BB049093BC04A093BD04C1
:10101000B093BE048091B7049091B804A091B90434
:10102000B091BA040196A11DB11D8093B7049093AD
:10103000B804A093B904B093BA04BF91AF919F9143
:101040008F913F912F910F900FBE0F901F90189589
:101050009FB7F8942091B7043091B8044091B90437
:101060005091BA0486B5A89B06C08F3F21F02F5F30
:101070003F4F4F4F5F4F9FBF542F432F322F222799
:10108000280F311D411D511D82E0220F331F441FC7
:10109000551F8A95D1F7B901CA010895789484B58E
:1010A000826084BD84B5816084BD85B5826085BD64
:1010B00085B5816085BDEEE6F0E08081816080834A
:1010C000E1E8F0E01082808182608083808181602D
:1010D0008083E0E8F0E0808181608083E1EBF0E0F4
:1010E000808184608083E0EBF0E080818160808398
:1010F000E1E9F0E08081826080838081816080838B
:10110000E0E9F0E0808181608083E1EAF0E08081C5
:1011100082608083808181608083E0EAF0E080816A
:1011200081608083E1E2F1E0808182608083808160
:1011300081608083E0E2F1E0808181608083EAE782
:10114000F0E0808184608083808182608083808100
:10115000816080838081806880831092C1000895BF
:10116000AF92BF92CF92DF92EF92FF920F931F93B5
:101170007B018C016DDF5B016C011EC013DF12C0AF
:101180000894E108F1080109110988EE93E0A0E054
:10119000B0E0A80EB91ECA1EDB1EE114F104010561
:1011A000110551F055DF6A197B098C099D09685EAC
:1011B00073408040904020F7E114F10401051105CF
:1011C000E9F61F910F91FF90EF90DF90CF90BF90C5
:1011D000AF900895CF93DF93482F50E0CA01895E06
:1011E0009E4FFC0134914D5F5E4FFA01849188233C
:1011F00069F190E0880F991FFC01EB51FF4FA59119
:10120000B491FC01E151FF4FC591D491662351F493
:101210002FB7F8948C91932F909589238C93888184
:1012200089230BC0623061F42FB7F8948C91932F0F
:10123000909589238C938881832B88832FBF06C048
:101240009FB7F8948C91832B8C939FBFDF91CF91A4
:101250000895893009F44FC08A30A0F4843081F1B8
:10126000853040F48230C9F1833030F5813009F0A7
:101270006DC030C08730A9F18830B8F5853009F0ED
:1012800065C022C08D3009F448C08E3028F48B3000
:10129000D1F18C30F0F533C0803109F448C0813190
:1012A00020F48E3009F052C03CC0813109F443C0B3
:1012B000823109F04BC045C0809180008F7707C014
:1012C000809180008F7D03C080918000877F809314
:1012D0008000089584B58F7702C084B58F7D84BD6A
:1012E00008958091B0008F7703C08091B0008F7D0A
:1012F0008093B0000895809190008F7707C080910F
:1013000090008F7D03C080919000877F8093900034
:1013100008958091A0008F7707C08091A0008F7DF5
:1013200003C08091A000877F8093A00008958091E2
:1013300020018F7703C0809120018F7D8093200151
:10134000089580912001877F809320010895FF9266
:101350000F931F93F62E482F50E0CA01855D9E4FD4
:10136000FC012491CA01895E9E4FFC0114914D5FDE
:101370005E4FFA0104910023C1F0222311F0822F65
:1013800068DFE02FF0E0EE0FFF1FE151FF4FA59166
:10139000B4919FB7F894FF2021F48C91109581238C
:1013A00002C08C91812B8C939FBF1F910F91FF9056
:1013B0000895AF92BF92CF92DF92EF92FF920F9378
:1013C0008CEF99E060E072E048EC50E020E030E023
:1013D00001E0EE24FF24CC24DD24AA24BB2405D282
:1013E000FCD20F91FF90EF90DF90CF90BF90AF9025
:1013F000089586E061E0EECE86E061E0A8DF68EE69
:1014000073E080E090E0ACDE86E060E0A0DF68EEB4
:1014100073E080E090E0A4DEEFCF8091C2048F5FA4
:101420008093C20408958091C204882321F081E052
:101430008093CC0408951092CC042BE030E005C0DA
:101440008091C30481508093C3048091C30490E0D1
:10145000829FF001839FF00D929FF00D1124ED52B9
:10146000FB4F8081882361F39091C3048BE0989FA8
:10147000D0011124AD52BB4F1196ED91FC91129702
:101480000480F581E02D1296FC93EE931197CD0127
:101490000396E817F90731F48481958112969C939D
:1014A0008E9311971196ED91FC91129780859185FD
:1014B0009093C1048093C0040895AF92BF92CF92DD
:1014C000DF92EF92FF920F931F93CF93DF93809160
:1014D000C204882309F0CFC08091C4049091C50450
:1014E000A091C604B091C7040196A11DB11D8093BF
:1014F000C4049093C504A093C604B093C704E090BD
:10150000C404F090C5040091C6041091C704E1140E
:10151000F10401051105B9F52091570530915805E1
:101520008091590590915A059093580580935705DD
:1015300030935A05209359058091CD048F5F809395
:10154000CD04E0915705F09158058081882329F456
:101550008FEF9FEFAFEFBFEF0EC0E0915705F09117
:1015600058050780F085E02D0084F185E02D82810B
:101570009381A481B5818093C8049093C904A093FA
:10158000CA04B093CB048091C8049091C904A0917F
:10159000CA04B091CB04E816F9060A071B0708F441
:1015A00052C0BB249BE0A92EE0915705F09158054D
:1015B0008081882329F48FEF9FEFAFEFBFEF12C038
:1015C000E0915705F09158050780F085E02DC08522
:1015D000D1858A819B81AC81BD81E816F9060A0715
:1015E0001B0748F48093C8049093C904A093CA04CD
:1015F000B093CB0429C082E0C82ED12CCC0EDD1EC6
:10160000C60163D4888D998D892B19F0CE010E9671
:101610005CD49A8D8091C304891710F49093C3040D
:101620009A9DC00111248D529B4FB6012FD4E09199
:10163000C004F091C1049A8D828D981708F4B4CF3C
:10164000BB24B394B1CFBB24E091C004F091C1049A
:10165000828D90E02BE030E0829FF001839FF00DBF
:10166000929FF00D1124ED52FB4F8081823048F0A3
:10167000BB24B39406C08091CE048F5F8093CE04C8
:10168000BB248091CC04882311F0BB24B3948B2D10
:10169000DF91CF911F910F91FF90EF90DF90CF904E
:1016A000BF90AF900895EF92FF920F931F93CF9347
:1016B000DF930FB6F8940F928091C204815080930B
:1016C000C2048091C204882309F050C08091CF04E5
:1016D000882341F54BC0E0916205F0916305C08518
:1016E000D185CE010E96F1D38E010E5F1F4FC8013A
:1016F000ECD39A8D8091C304891710F49093C3049E
:101700009E9DC00111248D529B4FB801BFD3E09123
:10171000C004F091C1049A8D828D981738F0F09230
:10172000CC0404C02BE0E22EFF24F39480915B05EF
:10173000882389F68091CE04882361F410C0BDDE31
:10174000882311F01093CC048091CE0481508093B3
:10175000CE0401C011E08091CE04882381F78091EE
:10176000CC04813019F422D381E001C080E00F90D5
:101770000FBEDF91CF911F910F91FF90EF900895D1
:101780000F931F9328C08091C2048F5F8093C2047F
:101790001091660588DF1123F1F00FB6F8940F92CF
:1017A000E0916D05F0916E0500851185C8010296E6
:1017B0008CD38091CF0481508093CF048091D10449
:1017C00081508093D1040F900FBEF801838D948DCA
:1017D0003ED1C8013CD18091D1048823A1F68091EB
:1017E000D3048230C0F3E2D2F6CF2F923F924F92D1
:1017F0005F927F928F929F92AF92BF92CF92DF9231
:10180000EF92FF920F931F93CF93DF931C01962EBD
:10181000872E5A012901702EE601C114D10429F442
:10182000CA0143D1EC01009791F08AE290E03DD1EA
:101830006C01009751F0FC01D48FC38F892D982D36
:101840009C01F901D60190E004C0CE0100D18FEFD8
:10185000B2C080815D968C935D978081882329F04A
:101860009F5F319611969830A1F7F60114A2072DCB
:10187000F9E0F71508F409E0F601028F42E0842E42
:10188000912C8C0C9D1CC401FDD2C6010E96FAD27F
:10189000F601D386C2868AE090E0A0E0B0E0801B2B
:1018A0009109A109B10986879787A08BB18BD78A47
:1018B000C68A15A216A217A210A611A60894A108FE
:1018C000B108CE018A0D9B1DB101A2018FD1F60195
:1018D00091838083E114F10419F0F701D182C08271
:1018E0000FB6F8940F928091CF048F5F8093CF044E
:1018F0008091C0049091C104892B51F5D092C1040C
:10190000C092C0048091CF04813089F5C3EDD4E04A
:10191000CE01A4D22B96F5E0C134DF07C9F731E43C
:10192000E32E35E0F32EC70199D20CE415E0C8018F
:1019300095D28BE595E092D286E695E08FD2F09233
:101940005805E092570510935A05009359050FC0AA
:101950008091D004882359F4E091C004F091C1042F
:10196000828D781620F0D092C104C092C00480917C
:10197000D2048F5F8093D204F601928D8091C304CC
:10198000891710F49093C3048BE0989FC001112431
:101990008D529B4FB4017AD20F900FBE8091D0042C
:1019A000882341F0E091C004F091C104828D871535
:1019B00008F4FCD181E0DF91CF911F910F91FF904E
:1019C000EF90DF90CF90BF90AF909F908F907F90DF
:1019D0005F904F903F902F900895AF92BF92CF921B
:1019E000DF92EF92FF920F9380EC9BE066E072E053
:1019F00045E550E020E030E000E0EE24FF24CC2478
:101A0000DD24AA24BB24F1DE8130C9F4F8948FEFE1
:101A10009FEFAFEFBFEF8093C8049093C904A093EA
:101A2000CA04B093CB0481E08093D0041092C40424
:101A30001092C5041092C6041092C7041FD10F91D2
:101A4000FF90EF90DF90CF90BF90AF900895CF932D
:101A5000DF93009739F1EC012497DFDC4A815B8149
:101A6000AEE4BBE02C9111963C911197BD01C901E8
:101A7000DC0112968D919C9113978417950790F332
:101A8000FB01B983A883D183C08380911C0290910C
:101A90001D022A813B81820F931F90931D02809328
:101AA0001C0201DEDF91CF910895EF92FF920F9318
:101AB0001F93CF93DF93EC01B0DC809171058823F5
:101AC00009F583E795E090934F0B80934E0B1092AE
:101AD000510B1092500B8BED95E09093550B80932A
:101AE000540B1092530B1092520B909376058093E7
:101AF000750582E59BE0909374058093730581E002
:101B000080937105209709F02496CE0101978A5D94
:101B1000954008F060C040914E0B50914F0BEEE4A1
:101B2000FBE0DA0112968D919C9113978C179D071B
:101B300038F48D919C91009719F0AC01FD01F1CF23
:101B4000BBE042355B0709F446C0E080F180DA0172
:101B50008D919C9111979183808312968D919C9188
:101B600013978C1B9D0B8930910528F1BA016C0FDE
:101B70007D1FFB01938382831396DC93CE93129790
:101B80000280F381E02DAEE4BBE02C9111963C91F4
:101B900011971A2F0B2FC901DC0112968D919C9180
:101BA00013978E179F0788F3E12FF02FEB01B9836E
:101BB000A88371836083E701249680911C02909131
:101BC0001D02FA0122813381821B930B90931D0227
:101BD00080931C0202C0C0E0D0E065DDCE01DF9141
:101BE000CF911F910F91FF90EF900895FC0191E12B
:101BF000908322E2229383E3829362937293129200
:101C000080E88293129282E0829383E0829384E060
:101C1000829385E0829386E0829387E0829388E0D6
:101C2000829389E0829380E18293929382E182930E
:101C300083E1829384E1829385E1829386E18293BA
:101C400087E1829388E1829389E1829380E28293A3
:101C500081E28293229383E282934293529386E2BB
:101C6000829387E2829388E2829389E2829380E37F
:101C7000829381E382933197CF01089589E0809325
:101C8000890083EC809388008BE080938100EFE6ED
:101C9000F0E0808182608083A091C004B091C10493
:101CA000CD91CDBFDD91DEBFFF91EF91DF91CF915F
:101CB000BF91AF919F918F917F916F915F914F9164
:101CC0003F912F911F910F91FF90EF90DF90CF9058
:101CD000BF90AF909F908F907F906F905F904F904C
:101CE0003F902F901F900F900FBE0F90089581E0AE
:101CF00008950F920FB6F8940F921F9211242F920D
:101D00003F924F925F926F927F928F929F92AF928B
:101D1000BF92CF92DF92EF92FF920F931F932F9378
:101D20003F934F935F936F937F938F939F93AF9363
:101D3000BF93CF93DF93EF93FF93A091C004B09133
:101D4000C1040DB60D920EB60D92B7DB882309F0D3
:101D50006ADBA091C004B091C104CD91CDBFDD91EB
:101D6000DEBFFF91EF91DF91CF91BF91AF919F9136
:101D70008F917F916F915F914F913F912F911F9123
:101D80000F91FF90EF90DF90CF90BF90AF909F901A
:101D90008F907F906F905F904F903F902F901F900B
:101DA0000F900FBE0F900895A4DF18950F920FB6F5
:101DB000F8940F921F9211242F923F924F925F92AC
:101DC0006F927F928F929F92AF92BF92CF92DF924B
:101DD000EF92FF920F931F932F933F934F935F9335
:101DE0006F937F938F939F93AF93BF93CF93DF9323
:101DF000EF93FF93A091C004B091C1040DB60D9272
:101E00000EB60D9210DBA091C004B091C104CD912B
:101E1000CDBFDD91DEBFFF91EF91DF91CF91BF91FB
:101E2000AF919F918F917F916F915F914F913F9172
:101E30002F911F910F91FF90EF90DF90CF90BF9067
:101E4000AF909F908F907F906F905F904F903F905A
:101E50002F901F900F900FBE0F900895FC019C01D2
:101E60002D5F3F4F328321838FEF9FEFAFEFBFEFA7
:101E700083839483A583B683308727833287218722
:101E800010820895FC01138612860895AC01FC01AE
:101E9000A181B281FB01B583A48316968D919C919B
:101EA0001797978386831696ED91FC911797758304
:101EB000648317967C936E931697FB015387428732
:101EC000FA0180818F5F80830895CF93DF93DC01D7
:101ED0001A96CD91DC911B9714964D915C911597B4
:101EE00016968D919C911797FA0197838683169683
:101EF0002D913C911797F9015583448389819A81EB
:101F00008A179B0711F43A8329831B961C921E9211
:101F10001A97888181508883DF91CF910895A1E23B
:101F20001A2EAA1BBB1BFD010DC0AA1FBB1FEE1F53
:101F3000FF1FA217B307E407F50720F0A21BB30B9E
:101F4000E40BF50B661F771F881F991F1A9469F71A
:101F500060957095809590959B01AC01BD01CF0176
:101F60000895EE0FFF1F0024001C0BBE0790F69192
:081F7000E02D0994F894FFCF65
:101F78005461736B310049444C4500FF790679067A
:101F8800790679067906790679067906DB0500006F
:101F980000006D01EA0439014B01FF001B010B0130
:061FA80000000000AB0484
:00000001FF
